:1000000012C0DBC22BC02AC029C028C027C026C00E
:1000100025C05CC323C010C421C020C01FC01EC0A7
:100020001DC01CC01BC011241FBECFE5D4E0DEBF25
:10003000CDBF10E0A0E6B0E0EEE8F4E102C005902C
:100040000D92A837B107D9F710E0A8E7B0E001C0DA
:100050001D92A739B107E1F705D317CAD1CFDF93B6
:10006000CF930F92CDB7DEB78983EBE2F0E08081CA
:10007000882F90E0807290700097B9F3ECE2F0E086
:10008000898180830F90CF91DF910895DF93CF9383
:1000900000D0CDB7DEB7EBE2F0E01082EAE2F0E0AC
:1000A00088E98083E0E4F0E086E88083E0E4F0E043
:1000B0001082E9E2F0E083E380830F900F90CF910C
:1000C000DF910895DF93CF9300D000D0CDB7DEB796
:1000D0009A83898389819A81009741F0A5E3B0E0F2
:1000E000E5E3F0E0808184608C9307C0A5E3B0E095
:1000F000E5E3F0E080818B7F8C930F900F900F9061
:100100000F90CF91DF910895DF93CF93CDB7DEB7F6
:100110006E970FB6F894DEBF0FBECDBF80E090E0C3
:10012000AAE7B4E4898F9A8FAB8FBC8F698D7A8DE3
:100130008B8D9C8D20E030E04AEF54E402D6DC0148
:10014000CB018D8B9E8BAF8BB88F6D897E898F890C
:10015000988D20E030E040E85FE33ED788232CF420
:1001600081E090E09C8B8B8B3BC06D897E898F8971
:10017000988D20E03FEF4FE757E4D8D618163CF5AE
:10018000698D7A8D8B8D9C8D20E030E040E251E4CA
:10019000D8D5DC01CB01BC01CD010FD4DC01CB01F2
:1001A0009C8B8B8B0FC088EC90E09A8B898B898914
:1001B0009A890197F1F79A8B898B8B899C89019792
:1001C0009C8B8B8B8B899C89009769F713C06D89F9
:1001D0007E898F89988DF1D3DC01CB019C8B8B8B31
:1001E0008B899C89988B8F878F8598890197F1F7E8
:1001F000988B8F87A5E3B0E0E5E3F0E080818D7F09
:100200008C9380E090E0AAEFB3E48B879C87AD8766
:10021000BE876B857C858D859E8520E030E04AEF2A
:1002200054E48FD5DC01CB018F839887A987BA87E7
:100230006F81788589859A8520E030E040E85FE32A
:10024000CBD688232CF481E090E09E838D833BC045
:100250006F81788589859A8520E03FEF4FE757E4E5
:1002600065D618163CF56B857C858D859E8520E0CE
:1002700030E040E251E465D5DC01CB01BC01CD01A9
:100280009CD3DC01CB019E838D830FC088EC90E072
:100290009C838B838B819C810197F1F79C838B835B
:1002A0008D819E8101979E838D838D819E81009794
:1002B00069F713C06F81788589859A857ED3DC01C3
:1002C000CB019E838D838D819E819A8389838981D1
:1002D0009A810197F1F79A838983A5E3B0E0E5E37A
:1002E000F0E0808182608C936E960FB6F894DEBF4A
:1002F0000FBECDBFCF91DF910895DF93CF93CDB7E0
:10030000DEB76E970FB6F894DEBF0FBECDBF80E0AC
:1003100090E0A0E0B0E4898F9A8FAB8FBC8F698D9D
:100320007A8D8B8D9C8D20E030E04AEF54E409D526
:10033000DC01CB018D8B9E8BAF8BB88F6D897E8955
:100340008F89988D20E030E040E85FE345D6882330
:100350002CF481E090E09C8B8B8B3BC06D897E8977
:100360008F89988D20E03FEF4FE757E4DFD51816CF
:100370003CF5698D7A8D8B8D9C8D20E030E040E2DC
:1003800051E4DFD4DC01CB01BC01CD0116D3DC018B
:10039000CB019C8B8B8B0FC088EC90E09A8B898B68
:1003A00089899A890197F1F79A8B898B8B899C8926
:1003B00001979C8B8B8B8B899C89009769F713C065
:1003C0006D897E898F89988DF8D2DC01CB019C8B59
:1003D0008B8B8B899C89988B8F878F8598890197C8
:1003E000F1F7988B8F87A5E3B0E0E5E3F0E080813B
:1003F00081608C9380E090E0A0E0B0E48B879C87E4
:10040000AD87BE876B857C858D859E8520E030E03D
:100410004AEF54E496D4DC01CB018F839887A987F7
:10042000BA876F81788589859A8520E030E040E839
:100430005FE3D2D588232CF481E090E09E838D8306
:100440003BC06F81788589859A8520E03FEF4FE733
:1004500057E46CD518163CF56B857C858D859E859B
:1004600020E030E040E251E46CD4DC01CB01BC017F
:10047000CD01A3D2DC01CB019E838D830FC088EC1C
:1004800090E09C838B838B819C810197F1F79C8307
:100490008B838D819E8101979E838D838D819E812B
:1004A000009769F713C06F81788589859A8585D211
:1004B000DC01CB019E838D838D819E819A8389830C
:1004C00089819A810197F1F79A838983A5E3B0E046
:1004D000E5E3F0E080818E7F8C936E960FB6F89402
:1004E000DEBF0FBECDBFCF91DF910895DF93CF93D5
:1004F00000D0CDB7DEB7A1E3B0E0E1E3F0E080816A
:100500008B7F8C93A2E3B0E0E2E3F0E08081846033
:100510008C93A5E5B0E0E5E5F0E0808181608C9307
:10052000ABE5B0E0EBE5F0E0808180648C930F9068
:100530000F90CF91DF910895DF93CF9300D000D03B
:10054000CDB7DEB781E090E090937C0080937B0094
:1005500080916000909161009A83898306C0CDDE0E
:1005600089819A8101979A83898389819A810097E9
:10057000B1F710927C0010927B000F900F900F90BB
:100580000F90CF91DF910895DF93CF9300D0CDB737
:10059000DEB783E764DD84E762DD8FE660DD80E758
:1005A0005EDD8DE05CDD8AE05ADDE5E3F0E010829F
:1005B0000F900F90CF91DF9108951F920F920FB679
:1005C0000F9211242F933F934F935F936F937F93D9
:1005D0008F939F93AF93BF93EF93FF93DF93CF934B
:1005E00000D0CDB7DEB7E6E3F0E08081882F90E061
:1005F000827090709A83898389819A81009721F013
:1006000081E090E09A83898389819A815BDD75DE40
:100610000F900F90CF91DF91FF91EF91BF91AF912C
:100620009F918F917F916F915F914F913F912F910A
:100630000F900FBE0F901F901895DF93CF9300D0AF
:10064000CDB7DEB7A9E5B0E0E9E5F0E080818160F3
:100650008C93E3E5F0E08DE780830F900F90CF91CE
:10066000DF910895DF93CF93CDB7DEB7E4E3F0E0F9
:100670008FEF8083E8E3F0E01082E7E3F0E08FEFB4
:100680008083E7E3F0E08BE08083E2E3F0E0108238
:10069000E1E3F0E01082FADCD0DF28DF82E690E0D0
:1006A000DEDC84E690E0DBDC86E690E0D8DC88E601
:1006B00090E0D5DC84E690E0D2DC7894A5E3B0E06D
:1006C000E5E3F0E080818D7F8C93FFCF1F920F9246
:1006D0000FB60F9211242F933F934F935F936F9315
:1006E0007F938F939F93AF93BF93EF93FF93DF938A
:1006F000CF93CDB7DEB780918500909186000196AB
:10070000909386008093850080918500909186006B
:100710008F319105B0F180916E0090916F0000973C
:1007200061F180918F0090919000009731F5809158
:100730008B0090918C00019690938C0080938B009D
:1007400020918B0030918C0080916E0090916F0011
:100750008217930790F410928C0010928B00809176
:100760006A0090916B0090937E0080937D0081E001
:1007700090E09093900080938F00109286001092EA
:10078000850080918F00909190000097C9F1809131
:100790007B0090917C00009799F580918700909163
:1007A00088000196909388008093870020918700AD
:1007B0003091880080916C0090916D0082179307B2
:1007C000F8F4109288001092870080917D0090913B
:1007D0007E000097A9F080917D0090917E000197A6
:1007E00090937E0080937D00A7DE80917D009091A4
:1007F0007E00009729F488DC1092900010928F0000
:10080000809183009091840001969093840080935E
:100810008300CF91DF91FF91EF91BF91AF919F91B5
:100820008F917F916F915F914F913F912F910F9099
:100830000FBE0F901F9018951F920F920FB60F9238
:1008400011242F933F934F935F936F937F938F93D5
:100850009F93AF93BF93EF93FF93DF93CF93CDB766
:10086000DEB72091780030917900ECE2F0E08081F1
:10087000F901ED56FF4F8083C901019690937900ED
:100880008093780080917800909179008230910572
:100890000CF480C080919300813089F480919400A1
:1008A000992787FD909590936B0080936A008091C3
:1008B0006A0090916B0090937E0080937D00809100
:1008C0009300823089F480919400992787FD909558
:1008D00090936D0080936C0080916C0090916D00FE
:1008E000909388008093870080919300833089F4EF
:1008F00080919400992787FD909590936F00809345
:100900006E0080916E0090916F0090938C008093A8
:100910008B0080919300843001F51092800010923A
:100920007F00109282001092810010928400109239
:100930008300109286001092850010928800109219
:10094000870010928A001092890010928C001092F9
:100950008B0010928E0010928D0080919300853054
:1009600031F480919400992787FD9095ABDB8091BD
:100970009300863049F480919400992787FD9095E3
:10098000909361008093600010927900109278003B
:1009900010927A00CF91DF91FF91EF91BF91AF91CB
:1009A0009F918F917F916F915F914F913F912F9187
:1009B0000F900FBE0F901F901895EF92FF920F931C
:1009C0001F937B018C0120E030E040E05FE4D9D24E
:1009D00088237CF0C801B70120E030E040E05FE40C
:1009E0005ED125D39B01AC0120503040404050489F
:1009F00005C0C801B7011BD39B01AC01B901CA01F5
:100A00001F910F91FF90EF900895A0E0B0E0EAE011
:100A1000F5E004C5DC012B01FA019C91923008F449
:100A200039C1EB018881823008F433C1943069F414
:100A3000843009F02FC111969C91119789819817E4
:100A400009F428C1A0E7B0E025C1843009F421C130
:100A50008230A9F4923009F01DC19A01AD0188E0FD
:100A6000EA010990AE01E90109929E018150C1F7A6
:100A7000E201898111969C918923818308C192307A
:100A800009F407C112962D903C901397EB018A81CF
:100A90009B811496AD90BD90CD90DC901797EC8023
:100AA000FD800E811F819101281B390BB90137FF91
:100AB00004C066277727621B730B603271050CF048
:100AC00061C0121613066CF537014801062E04C0EA
:100AD00096948794779467940A94D2F721E030E053
:100AE00040E050E004C0220F331F441F551F6A9599
:100AF000D2F721503040404050402E213F2140232A
:100B00005123211531054105510521F021E030E047
:100B100040E050E079018A01E628F72808291929E0
:100B20003CC0232BD1F1260E371E35014601062E7F
:100B300004C096948794779467940A94D2F721E03E
:100B400030E040E050E004C0220F331F441F551F27
:100B50006A95D2F721503040404050402A213B2135
:100B60004C215D21211531054105510521F021E080
:100B700030E040E050E059016A01A628B728C828B3
:100B8000D9280BC0821593052CF01C01AA24BB2484
:100B9000650103C0EE24FF24870111969C91D201C8
:100BA00011968C91981709F445C0992339F0A80142
:100BB00097012A193B094C095D0906C0A601950158
:100BC0002E193F09400B510B57FD08C0118233828B
:100BD000228224833583468357831DC081E081832D
:100BE0003382228288279927DC01821B930BA40B76
:100BF000B50B84839583A683B7830DC0220F331F63
:100C0000441F551F248335834683578382819381F4
:100C10000197938382832481358146815781DA014C
:100C2000C9010197A109B1098F5F9F4FAF4FBF4322
:100C300028F30BC0918333822282EA0CFB1C0C1D2B
:100C40001D1DE482F5820683178383E0808324815F
:100C500035814681578157FF1AC0C901AA2797FDE0
:100C6000A095BA2F81709070A070B070569547957E
:100C700037952795822B932BA42BB52B84839583B3
:100C8000A683B78382819381019693838283DF0158
:100C900001C0D201CD01CDB7DEB7E2E1DBC3A0E2F6
:100CA000B0E0E4E5F6E0C6C369837A838B839C8376
:100CB0002D833E834F835887E9E0EE2EF12CEC0E16
:100CC000FD1ECE010196B701D8D28E010F5E1F4FD7
:100CD000CE010596B801D1D28A8991E089278A8B05
:100CE000C701B801AE01475E5F4F8FDEF1D1A0961C
:100CF000E6E0BCC3A0E2B0E0EFE7F6E09BC36983A7
:100D00007A838B839C832D833E834F835887F9E0BE
:100D1000EF2EF12CEC0EFD1ECE010196B701ADD2E7
:100D20008E010F5E1F4FCE010596B801A6D2C701F6
:100D3000B801AE01475E5F4F68DECAD1A096E6E01B
:100D400095C3A0E2B0E0E6EAF6E068C369837A837F
:100D50008B839C832D833E834F835887CE010196DE
:100D6000BE01675F7F4F89D2CE010596BE016F5EDF
:100D70007F4F83D29985923088F089898230C8F07C
:100D8000943019F4823051F404C0843029F4923044
:100D900081F480E790E0C6C0923049F420E09A8563
:100DA0008A89981321E02A87CE010996BBC0823038
:100DB00049F420E09A858A89981321E02A8BCE0194
:100DC0004196B0C02D843E844F8458886D887E88BB
:100DD0008F88988CEE24FF248701AA24BB24650108
:100DE00040E050E060E070E0E0E0F0E0C1018170E0
:100DF0009070892BE9F0E60CF71C081D191D9A016B
:100E0000AB012A0D3B1D4C1D5D1D80E090E0A0E074
:100E1000B0E0E614F7040805190520F481E090E03D
:100E2000A0E0B0E0BA01A901480F591F6A1F7B1F5B
:100E3000AA0CBB1CCC1CDD1C97FE08C081E090E016
:100E4000A0E0B0E0A82AB92ACA2ADB2A3196E0320B
:100E5000F10549F0660C771C881C991C5694479440
:100E600037942794C3CFFA85EA892B893C898B85EF
:100E70009C85280F391F2E5F3F4F17C0CA01817014
:100E80009070892B61F016950795F794E79480E0B0
:100E900090E0A0E0B0E8E82AF92A0A2B1B2B76950F
:100EA0006795579547952F5F3F4F77FDE7CF0CC06C
:100EB000440F551F661F771F17FD4160EE0CFF1C86
:100EC000001F111F21503040403090E0590790E042
:100ED000690790E4790760F32B8F3C8FDB01CA012F
:100EE0008F779070A070B07080349105A105B10526
:100EF00061F447FD0AC0E114F1040105110529F070
:100F0000405C5F4F6F4F7F4F40781A8EFE1711F095
:100F100081E08A8F4D8F5E8F6F8F78A383E0898FFA
:100F2000CE014996D5D0A096E2E194C2A8E1B0E006
:100F3000EBE9F7E07FC269837A838B839C832D83FF
:100F40003E834F83588789E0E82EF12CEC0EFD1E7E
:100F5000CE010196B70191D18E010F5E1F4FCE01D8
:100F60000596B8018AD18985823038F08989823026
:100F700020F0C701B801F9D101C08FEF6896E6E013
:100F800075C2A8E1B0E0E6ECF7E054C269837A8369
:100F90008B839C832D833E834F83588789E0E82E83
:100FA000F12CEC0EFD1ECE010196B70166D18E012B
:100FB0000F5E1F4FCE010596B8015FD18985823043
:100FC00038F08989823020F0C701B801CED101C044
:100FD0008FEF6896E6E04AC2A8E1B0E0E1EFF7E003
:100FE00029C269837A838B839C832D833E834F83BD
:100FF000588789E0E82EF12CEC0EFD1ECE010196FB
:10100000B7013BD18E010F5E1F4FCE010596B8018F
:1010100034D18985823038F08989823020F0C70147
:10102000B801A3D101C081E06896E6E01FC2ACE040
:10103000B0E0ECE1F8E002C269837A838B839C83A1
:10104000CE010196BE016B5F7F4F17D18D8182303B
:1010500061F1823050F1843021F48E81882351F186
:101060002EC02F81388537FD20C06E812F3131058C
:101070001CF06623F9F023C08EE190E0821B930BF5
:1010800029853A854B855C8504C0569547953795EB
:1010900027958A95D2F76623B1F050954095309503
:1010A00021953F4F4F4F5F4F0EC020E030E040E0B2
:1010B00050E009C02FEF3FEF4FEF5FE704C020E0A3
:1010C00030E040E050E8B901CA012C96E2E0D2C11C
:1010D000DF92EF92FF920F931F93FC01E480F58063
:1010E00006811781D1808081823048F480E090E0D1
:1010F000A0E1B0E0E82AF92A0A2B1B2BA5C0843016
:1011000009F49FC0823021F4EE24FF24870105C03A
:10111000E114F1040105110519F4E0E0F0E096C0D6
:10112000628173819FEF623879070CF05BC022E81F
:101130003FEF261B370B2A3131052CF020E030E041
:1011400040E050E02AC0B801A701022E04C0769505
:101150006795579547950A94D2F781E090E0A0E013
:10116000B0E004C0880F991FAA1FBB1F2A95D2F7B1
:101170000197A109B1098E219F21A023B1230097D6
:10118000A105B10521F081E090E0A0E0B0E09A0176
:10119000AB01282B392B4A2B5B2BDA01C9018F7746
:1011A0009070A070B07080349105A105B10539F43C
:1011B00027FF09C0205C3F4F4F4F5F4F04C0215CA9
:1011C0003F4F4F4F5F4FE0E0F0E02030A0E03A07A4
:1011D000A0E04A07A0E45A0710F0E1E0F0E079014E
:1011E0008A0127C06038710564F5FB01E158FF4FA3
:1011F000D801C7018F779070A070B07080349105CE
:10120000A105B10539F4E7FE0DC080E490E0A0E04F
:10121000B0E004C08FE390E0A0E0B0E0E80EF91E7B
:101220000A1F1B1F17FF05C016950795F794E79433
:10123000319687E016950795F794E7948A95D1F74C
:1012400005C0EE24FF248701EFEFF0E06E2F6795D5
:1012500066276795902F9F77D794DD24D7948E2F9C
:101260008695492F462B582F5D29B701CA011F913A
:101270000F91FF90EF90DF900895FC01DB0140811A
:1012800051812281622F6F7770E0221F2227221F57
:101290009381892F880F822B282F30E0991F99275F
:1012A000991F11969C93119721153105A9F54115A8
:1012B00051056105710511F482E037C082E89FEFA6
:1012C00013969C938E9312979A01AB0167E0220FBD
:1012D000331F441F551F6A95D1F783E08C930DC0CF
:1012E000220F331F441F551F12968D919C91139707
:1012F000019713969C938E931297203080E03807C5
:1013000080E0480780E4580758F314962D933D93E6
:101310004D935C93179708952F3F310579F441154C
:1013200051056105710519F484E08C93089564FFFB
:1013300003C081E08C9312C01C9210C02F57304024
:1013400013963C932E93129783E08C9387E0440F7F
:10135000551F661F771F8A95D1F7706414964D93B9
:101360005D936D937C93179708951F93DC01FB01A8
:101370009C91923008F447C08081823008F443C0C9
:10138000943051F411961C91843099F58181682F25
:1013900070E0611B71093FC0843021F0923031F45C
:1013A0008230B9F18181882389F12DC011961C9179
:1013B00011978230F1F081811817D9F412962D918E
:1013C0003C911397828193818217930794F0281799
:1013D0003907BCF014968D919D910D90BC91A02D74
:1013E0002481358146815781281739074A075B07D1
:1013F00018F4112341F00AC082179307A407B50718
:1014000040F4112319F061E070E005C06FEF7FEF49
:1014100002C060E070E0CB011F9108952F923F92CF
:101420004F925F926F927F928F929F92AF92BF92F4
:10143000CF92DF92EF92FF920F931F93CF93DF93A0
:10144000CDB7DEB7CA1BDB0B0FB6F894DEBF0FBEFD
:10145000CDBF09942A88398848885F846E847D844A
:101460008C849B84AA84B984C884DF80EE80FD804C
:101470000C811B81AA81B981CE0FD11D0FB6F894C2
:0E148000DEBF0FBECDBFED010895F894FFCF83
:10148E00030073007400610072000100030002008B
:08149E00000000000000000046
:00000001FF
